:100000000C9458000C9480000C9480000C94800098
:100010000C9480000C9480000C9480000C94800060
:100020000C9480000C9480000C9480000C9482004E
:100030000C9480000C9480000C9480000C94800040
:100040000C9422030C9480000C94EB010C941D0280
:100050000C9480000C9480000C9480000C94800020
:100060000C9487040C94800000000008000201003A
:100070000003040700000000000000000102040863
:100080001020408001020408102001020408102002
:10009000040404040404040402020202020203032E
:1000A0000303030300000000250028002B00430287
:1000B00011241FBECFEFD8E0DEBFCDBF11E0A0E01E
:1000C000B1E0E0EBF1E202C005900D92A036B1077D
:1000D000D9F723E0A0E6B1E001C01D92A937B2072D
:1000E000E1F710E0C8E5D0E004C02197FE010E94CE
:1000F000D010C735D107C9F70E94A5000C94D610BF
:100100000C9400001F920F920FB60F9211248F9340
:1001100081E0809360018F910F900FBE0F901F9030
:10012000189510928000E1E8F0E010828DEB91E0EC
:10013000909389008093880080818D608083EFE6B2
:10014000F0E08081826080830895109260010E94B7
:100150006C030E94A70360E87AE186E090E00E94C9
:10016000C50326E040E855E260E070E081E691E0FA
:100170000E9486010E94B4050E9491008091600156
:100180008823E1F30E94BB054AE050E0682F81E636
:1001900091E00E94100310926001F0CFFC01918D5C
:1001A000228D892F90E0805C9F4F821B91098F7375
:1001B00099270895FC01918D828D981731F0828DD9
:1001C000E80FF11D858D90E008958FEF9FEF089562
:1001D000FC01918D828D981761F0828DDF01A80F4F
:1001E000B11D5D968C91928D9F5F9F73928F90E071
:1001F00008958FEF9FEF0895FC01848DDF01A80F14
:10020000B11DA35ABF4F2C91848D90E001968F733E
:100210009927848FA689B7892C93A089B1898C915D
:1002200080648C93938D848D981306C00288F38923
:10023000E02D80818F7D80830895EF92FF920F9350
:100240001F93CF93DF93EC0181E0888F9B8D8C8D82
:10025000981305C0E889F989808185FD24C0F62EB0
:100260000B8D10E00F5F1F4F0F731127E02E8C8D49
:10027000E8120CC00FB607FCFACFE889F989808133
:1002800085FFF5CFCE010E94FC00F1CF8B8DFE01E2
:10029000E80FF11DE35AFF4FF0820B8FEA89FB89CB
:1002A0008081806207C0EE89FF896083E889F989CF
:1002B00080818064808381E090E0DF91CF911F9105
:1002C0000F91FF90EF900895CF93DF93EC01888D0D
:1002D0008823C9F0EA89FB89808185FD05C0A8894A
:1002E000B9898C9186FD0FC00FB607FCF5CF8081D0
:1002F00085FFF2CFA889B9898C9185FFEDCFCE011A
:100300000E94FC00E7CFDF91CF910895CF92DF925A
:10031000EF92FF921F93CF93DF93EC016A017B0171
:10032000122FE889F98982E080834115514E6105D9
:100330007105B1F060E079E08DE390E0A7019601EE
:100340000E949A10DA01C9010197A109B109B69575
:10035000A795979587959C01211580E13807A8F00E
:10036000E889F989108260E874E88EE190E0A701DD
:1003700096010E949A10DA01C9010197A109B109F9
:10038000B695A795979587959C01EC85FD8530835B
:10039000EE85FF852083188EEC89FD891083EA891C
:1003A000FB89808180618083EA89FB898081886004
:1003B0008083EA89FB89808180688083EA89FB8960
:1003C00080818F7D8083DF91CF911F91FF90EF908F
:1003D000DF90CF9008951F920F920FB60F921124C5
:1003E0002F938F939F93EF93FF93E0917101F0917F
:1003F00072018081E0917701F091780182FD12C055
:10040000908180917A018F5F8F7320917B01821799
:1004100051F0E0917A01F0E0EF59FE4F958F809313
:100420007A0101C08081FF91EF919F918F912F916F
:100430000F900FBE0F901F9018951F920F920FB63E
:100440000F9211242F933F934F935F936F937F935A
:100450008F939F93AF93BF93EF93FF9381E691E0C8
:100460000E94FC00FF91EF91BF91AF919F918F91FE
:100470007F916F915F914F913F912F910F900FBEA0
:100480000F901F901895E1E6F1E01382128288EE3A
:1004900093E0A0E0B0E084839583A683B7838EE3E6
:1004A00091E09183808385EC90E09587848784EC4C
:1004B00090E09787868780EC90E0918B808B81EC31
:1004C00090E0938B828B82EC90E0958B848B86EC12
:1004D00090E0978B868B118E128E138E148E08955A
:1004E000CF92DF92EF92FF920F931F93CF93DF9300
:1004F0006C017A018B01C0E0D0E0CE15DF0581F000
:10050000D8016D918D01D601ED91FC910190F081A2
:10051000E02DC6010995892B11F02196EECF7E01C1
:10052000C701DF91CF911F910F91FF90EF90DF9066
:10053000CF9008956115710579F0FB0101900020BD
:10054000E9F73197AF01461B570BDC01ED91FC91A8
:100550000280F381E02D099480E090E008956AE440
:1005600071E00C949A028F929F92AF92BF92EF9299
:10057000FF920F931F93CF93DF93CDB7DEB7A19771
:100580000FB6F894DEBF0FBECDBF7C01FA01CB01E0
:1005900019A2223008F42AE08E010F5D1F4F822E2F
:1005A000912CA12CB12CBF01A50194010E949A109D
:1005B000F901CA01015011096A3010F4605D01C0EF
:1005C000695CD8016C93232B242B252B61F7B80190
:1005D000C7010E949A02A1960FB6F894DEBF0FBE23
:1005E000CDBFDF91CF911F910F91FF90EF90BF9002
:1005F000AF909F908F9008952115310541F4DC0153
:10060000ED91FC910190F081E02D642F09940C9400
:10061000B3029A01462F50E060E070E00C94FC02B7
:100620000F931F93CF93DF93EC010E9409038C017A
:10063000CE010E94AF02800F911FDF91CF911F91D9
:100640000F9108951F920F920FB60F9211242F93BE
:100650003F938F939F93AF93BF938091FF019091AE
:100660000002A0910102B09102023091FE0123E04C
:10067000230F2D3720F40196A11DB11D05C026E8DA
:10068000230F0296A11DB11D2093FE018093FF014F
:1006900090930002A0930102B093020280910302A2
:1006A00090910402A0910502B09106020196A11D4D
:1006B000B11D8093030290930402A0930502B093AE
:1006C0000602BF91AF919F918F913F912F910F9013
:1006D0000FBE0F901F901895789484B5826084BDEA
:1006E00084B5816084BD85B5826085BD85B5816036
:1006F00085BDEEE6F0E0808181608083E1E8F0E096
:100700001082808182608083808181608083E0E8C4
:10071000F0E0808181608083E1EBF0E080818460A3
:100720008083E0EBF0E0808181608083EAE7F0E0A5
:100730008081846080838081826080838081816009
:1007400080838081806880831092C1000895109218
:10075000780381E0809372021092710261E082E17D
:100760000E940A0661E083E10E940A06E9EBF0E0DC
:1007700080818E7F808380818D7F808388E48093D9
:10078000B80085E48093BC0008959B01AC0160E053
:1007900074E284EF90E00E949A10DA01C901409758
:1007A000A109B109B695A795979587958093B8004B
:1007B0000895413208F043C0909178039111FCCF25
:1007C00091E090937803209372022FEF2093070219
:1007D00010924C02240F20934B029093730290913D
:1007E0007302880F892B809373028091710281308C
:1007F00061F410927102809173028093BB0080912A
:10080000BC0083FDF8CF85EC01C085EE8093BC0071
:10081000809178038130E1F380914C02841710F4C9
:1008200040914C02ADE4B2E0962FFB018E2F891B64
:10083000841718F48D918193F9CF842F089580E067
:1008400008950F93413208F04AC0909178039111B6
:10085000FCCF32E030937803009372023FEF309385
:10086000070210924C0240934B02562FADE4B2E0C7
:10087000FB013E2F351B341718F431913D93F9CF0E
:100880001092730230917302880F832B809373024E
:1008900080917102813061F4109271028091730233
:1008A0008093BB008091BC0083FDF8CF85EC01C034
:1008B00085EE8093BC00222321F080917803823062
:1008C000D1F3809107028F3F79F080910702803247
:1008D00041F080910702803331F094E005C091E04F
:1008E00003C092E001C093E0892F0F91089585ED38
:1008F0008093BC008091BC0084FDFCCF10927803F3
:10090000089585EC8093BC001092780308951F929F
:100910000F920FB60F9211242F933F934F935F9333
:100920006F937F938F939F93AF93BF93EF93FF93B7
:100930008091B900887F803609F49EC078F58832AE
:1009400009F45DC090F4803109F456C038F488236E
:1009500009F4F5C0883009F44FC0F5C0883109F4B6
:100960004EC0803209F45FC0EEC0803409F46AC022
:1009700058F4803309F457C0883309F0E4C08093F9
:1009800007020E948104DFC0803509F44FC088351A
:1009900009F45DC0883409F0D6C0D3C0883909F4A1
:1009A000C4C0A8F4883709F467C038F4883609F45D
:1009B00063C0803709F460C0C6C0883809F4B5C088
:1009C000803909F45FC0803809F0BDC05BC0803B4E
:1009D00009F483C038F4803A09F466C0883A09F40F
:1009E0007CC0B1C0803C09F4A4C0883C09F4A1C01B
:1009F000883B09F487C0A7C08091730210C0909112
:100A00004C0280914B02981770F5E0914C0281E006
:100A10008E0F80934C02F0E0E35BFD4F808180936A
:100A2000BB0085EC83C0809307028BC0E0914C0231
:100A300081E08E0F80934C028091BB00F0E0E35B7D
:100A4000FD4F808390914C0280914B026BC0E091EE
:100A50004C0281E08E0F80934C028091BB00F0E04D
:100A6000E35BFD4F80838091720281116AC081E057
:100A70008093710284EA5EC083E0809378031092D1
:100A80000802CFCF80910802803208F04EC0E0917A
:100A9000080281E08E0F809308028091BB00F0E095
:100AA000E75FFD4F8083BDCF0E94810480910802E3
:100AB000803230F4E0910802F0E0E75FFD4F1082F1
:100AC0006091080270E0E0916D02F0916E0289E0A1
:100AD00092E009951092080236C084E08093780372
:100AE00010922A0210922902E0916F02F091700296
:100AF000099580912902811105C081E08093290226
:100B000010922B02E0912A0281E08E0F80932A023C
:100B1000F0E0E55DFD4F80818093BB0090912A025B
:100B200080912902981708F47CCF85E88093BC0057
:100B30000AC085EC8093BC001092780304C0109228
:100B400007020E947704FF91EF91BF91AF919F91AF
:100B50008F917F916F915F914F913F912F910F9066
:100B60000FBE0F901F9018950E943906892B11F423
:100B70000C9455060895CF93DF931F92CDB7DEB73F
:100B80001982809175020E945706892BB1F48091D9
:100B900075028F5F8093750280917502803268F0D4
:100BA00010927502BE016F5F7F4F84E792E00E9452
:100BB000C0068091740290E000C00F90DF91CF9149
:100BC0000895833081F028F4813099F08230A1F0CB
:100BD00008958730A9F08830B9F08430D1F480913D
:100BE00080008F7D03C0809180008F77809380008C
:100BF000089584B58F7702C084B58F7D84BD089534
:100C00008091B0008F7703C08091B0008F7D80937A
:100C1000B00008951F93CF93DF93282F30E0F901A0
:100C2000E859FF4F8491F901E458FF4FD491F9013D
:100C3000E057FF4FC491CC23C1F0162F81110E94C1
:100C4000E105EC2FF0E0EE0FFF1FEC55FF4FA591F3
:100C5000B4919FB7F894111104C08C91D095D8230A
:100C600002C0EC91DE2BDC939FBFDF91CF911F91EF
:100C7000089584E0ECE8F2E0DF011D928A95E9F73F
:100C80000E947208009781F48BE892E00E9470093C
:100C90000E94C906009741F40E94CA07009721F4F8
:100CA00086E792E00C941F0B08950C9491080F9323
:100CB0001F93CF93DF9300D000D01F92CDB7DEB744
:100CC0001D8219821A821B821C8290918B029230A3
:100CD00011F0943029F4882319F000E010E045C0A9
:100CE0008CE892E00E94F0088C01892BF1F5BE019E
:100CF0006F5F7F4F8CE892E00E94250849815A81FE
:100D00006B817C812BE832E08CE892E00E948E09B6
:100D100060918B02653021F481E08093900202C0E3
:100D200010929002AE014B5F5F4F8CE892E00E9400
:100D3000E9068C01892BC9F480919002813061F41D
:100D40008D81811109C069817A818B819C8146E7FF
:100D500052E00E945F0B09C00E9417086091900248
:100D600086E792E00E94420B8C01C8010F900F9021
:100D70000F900F900F90DF91CF911F910F910895D9
:100D800020917602FC01208380919002FB018083F8
:100D90000895109296021092970210929802109263
:100DA000990281E08093950280E197E2909394020A
:100DB00080939302109292021092910260E083E07D
:100DC0000E942909009721F460E084E00C9429092D
:100DD0000895FF920F931F93CF93DF93CDB7DEB7A4
:100DE00062970FB6F894DEBF0FBECDBF162F22E17B
:100DF000E0E0F1E0DE01119601900D922A95E1F715
:100E0000FA011082633061F06530A1F0613009F0C1
:100E100098C080919502813009F493C0608391C09D
:100E200080919502833009F48CC081E0FA018083BF
:100E30000DE088C020919502253099F01092920221
:100E40001092910280E197E2909394028093930232
:100E500010929602109297021092980210929902A4
:100E60005AC0FC0122813381283E334008F056C02D
:100E7000FC012081318160919302709194028091F4
:100E8000960290919702A0919802B091990226172C
:100E9000370768F168E873E17093940260939302F6
:100EA0002837F9E63F0788F4203F3545D8F02091F0
:100EB0009102309192022F5F3F4F203A310528F482
:100EC000309392022093910229C0109292021092C4
:100ED0009102181619061A061B0604F50197A109B6
:100EE000B10911C0109292021092910217C0109293
:100EF00092021092910288309105A105B10574F417
:100F00000196A11DB11D8093960290939702A09324
:100F10009802B093990281E0FA0180838091960251
:100F200090919702A0919802B0919902880F991F11
:100F3000E1E0F0E0EC0FFD1FE80FF91FF080018108
:100F400002C000E0F12CFA018081813099F40E9406
:100F5000DB08009789F46F2D83E00E942909009730
:100F600059F4602F84E00E942909009729F40E9417
:100F7000910802C080E090E01093950262960FB64F
:100F8000F894DEBF0FBECDBFDF91CF911F910F91BF
:100F9000FF900895CF93DF93CDB7DEB7A8970FB634
:100FA000F894DEBF0FBECDBF84E1E2E1F1E0DE01E7
:100FB000559601900D928A95E1F784E1E6E2F1E021
:100FC000DE01119601900D928A95E1F768EE72E0CC
:100FD00084E00E94C20D81111FC061EC72E088E0C4
:100FE0000E94C20D811118C06AE972E088E00E9477
:100FF000C20D811111C01092570363E373E0CE015B
:1010000045960E944A0C6FE073E0CE0101960E9463
:101010004A0C80E090E002C080E091E3A8960FB611
:10102000F894DEBF0FBECDBFDF91CF91089510922F
:10103000570388EE92E00E94470E81EC92E00E94F6
:10104000470E8AE992E00C94470ECF92DF92EF921E
:10105000FF920F931F93CF93DF93EB01FC0160810D
:10106000718180E090E00E94620F48EE52E00E94A1
:10107000DC0D41EC52E00E94DC0D4AE952E00E9496
:10108000DC0D6B017C0180915703811114C081E05C
:101090008093570303E313E0A7019601C701B6014C
:1010A0000E94620D0FE013E020E030E0A901CA01C8
:1010B000B9010E94620D43E353E0C701B6010E94EB
:1010C000A90C4FE053E00E94A90C688379838A83BE
:1010D0009B83DF91CF911F910F91FF90EF90DF9055
:1010E000CF90089510925D0382E080935B0310928D
:1010F0005C0388E080935A031092590310925803BE
:101100000E94030B8E5F833048F4E82FF0E0EE0F6F
:10111000FF1FE75AFE4F8081918108958FEF9FE175
:1011200008950F931F93CF93DF9300D01F92CDB7F5
:10113000DEB700915B03037080915C0380FB02F9D2
:10114000006880915A038F708F7E9091590390FBB5
:1011500085F9109158031295110F110F107C8F73A0
:10116000182B0E94BE0A811110C009831A8381E0E6
:101170008B8343E0BE016F5F7F4F81E40E948B0A47
:10118000811103C091E090935D038E5F833048F43A
:10119000E82FF0E0EE0FFF1FE75AFE4F80819181AC
:1011A00002C08FEF9FE10F900F900F90DF91CF91D2
:1011B0001F910F9108950E94BE0A811102C01092E2
:1011C0005D038E5F833048F4E82FF0E0EE0FFF1FE1
:1011D000E75AFE4F8081918108958FEF9FE1089536
:1011E0000F931F93CF93DF9300D000D0CDB7DEB71E
:1011F00020915D032223F9F08C0144E0BE016F5F72
:101200007F4F84E50E94D00A811109C029813A816B
:10121000F801338322832B813C81318320838E5FCD
:10122000833060F4E82FF0E0EE0FFF1FE75AFE4F27
:101230008081918105C081E091E102C08FEF9FE143
:101240000F900F900F900F90DF91CF911F910F9102
:10125000089590915D03913071F18230C9F028F4C6
:10126000882341F0813059F029C08330B1F08430B7
:10127000C9F024C0623028F560935C0306C08FEF8C
:10128000860F823008F560935B0380E090E008955C
:101290006430E8F460935803F8CF6230D8F4609378
:1012A0005903F3CF8FEF860F8730B8F06031A8F481
:1012B00060935A03EACF80E091E1089585E092E1DE
:1012C000089580E092E1089581E092E1089582E03E
:1012D00092E1089583E092E1089584E092E1089517
:1012E00010926A03109269031092680310926703C8
:1012F00010926603109262031092630310926403CB
:101300001092650310925E0310925F0310926003C7
:101310001092610321E0FC0120830895CF92DF92B7
:10132000EF92FF92CF93DF93FC016A017B01E90109
:101330008881853038F4833030F5813039F082305F
:10134000D1F0E2C0853009F459C0DEC082819381BA
:10135000843F914010F483E025C08091690390910F
:101360006A03019690936A0380936903809708F457
:10137000CBC082E017C082819381843F914008F006
:10138000C3C083E039C082819381883E9340B0F42A
:1013900010926A0310926903808191818838934189
:1013A000D0F085E0888310926A031092690310924E
:1013B00068031092670310926603A6C080916903C8
:1013C00090916A03019690936A03809369038097D2
:1013D00010F081E0E7CF8091670390916803019658
:1013E0009093680380936703803C23E0920788F71B
:1013F000809709F089C084E0888386C082819381C8
:10140000883E934028F410926A03109269030BC03F
:101410008091690390916A03019690936A03809387
:1014200069038097B0F68091660381110CC081E05A
:1014300080936603C0926203D0926303E0926403D8
:10144000F092650313C01816D4F420916203309112
:1014500063034091640350916503C701B6010E9484
:10146000141087FF1DC08FEF80936603C0925E0348
:10147000D0925F03E0926003F092610319C0209163
:101480005E0330915F034091600350916103C70197
:10149000B6010E94BC0E18164CF781E080936603DB
:1014A000C0926203D0926303E0926403F0926503FA
:1014B00020915E0330915F0340916003509161037E
:1014C000609162037091630380916403909165035E
:1014D0000E944F0E20E030E040EA51E40E941410D8
:1014E00018162CF410926803109267030DC08091B7
:1014F0006703909168030196909368038093670354
:10150000803C934008F065CFDF91CF91FF90EF9042
:10151000DF90CF900895CF92DF92FF920F931F93A9
:10152000CF93DF931F92CDB7DEB789836B01F42E83
:1015300000E010E021E030E041E050E0BE016F5FEC
:101540007F4F8BE590E00E9421044F2D50E001E099
:1015500010E020E030E0B6018BE590E00E9421042D
:10156000882311F08EEF01C080E00F90DF91CF91C2
:101570001F910F91FF90DF90CF900895CF93DF934D
:101580001F92CDB7DEB780E8898341E0BE016F5F6F
:101590007F4F80E40E948B0A0F90DF91CF910895D6
:1015A000CF92DF92FF920F931F93CF93DF931F92FF
:1015B000CDB7DEB789836B01F42E01E010E020E0A7
:1015C00030E041E050E0BE016F5F7F4F8BE590E07F
:1015D0000E94210481110BC04F2D50E021E030E02A
:1015E000B6018BE590E00E94D903F81611F08EEF5A
:1015F00001C080E00F90DF91CF911F910F91FF907C
:10160000DF90CF900895CF93DF931F92CDB7DEB7D1
:1016100041E0BE016F5F7F4F80E10E94D00A8111DF
:1016200006C081E099819D3009F480E081958111A7
:1016300002C00E94BE0A0F90DF91CF910895FC0175
:1016400010821182128213821482158216821782EE
:1016500010861186128613861486158616861786BE
:10166000108A118A128A138A148A6BE673E084E066
:101670000E94780D882319F080E090E3089580E0BF
:1016800090E00895FC016230A0F41182128213826E
:10169000148215821682178210861186128613868E
:1016A0001486611109C010828BE693E00E94BC0D84
:1016B00003C081E090E3089580E090E008954F92A8
:1016C0005F926F927F928F929F92AF92BF92CF92D2
:1016D000DF92EF92FF92CF93DF932B013C01EA015F
:1016E000C980DA80EB80FC802FEFC21AD20AE20AAE
:1016F000F20AC982DA82EB82FC8232E0C316D1049C
:10170000E104F1044CF02D853E854F8558890E94F7
:101710004F0E4B015C0103C0812C912C54014D866E
:101720005E866F86788A43E0C416D104E104F10432
:101730005CF029893A894B895C89C501B4010E9412
:101740004F0E2B013C0103C0412C512C3201898AE0
:101750009A8AAB8ABC8A89859A85AB85BC85A701A4
:101760009601281B390B4A0B5B0BCA01B9011216F3
:10177000130614061506DCF40E94640F20E030E026
:1017800040E05DE30E9419109B01AC0160E070E055
:1017900080E792E40E94C10E6B017C0120E030E002
:1017A00040E252E40E94BC0E87FF08C003C0C12C77
:1017B000D12C760119861A861B861C8620E030E023
:1017C000A901C501B4010E94BC0E87FF3BC020E007
:1017D00030E0A901C301B2010E94141087FD32C09C
:1017E0008D819E81AF81B8850397A105B10554F124
:1017F00089859A85AB85BC85892B8A2B8B2BD1F06B
:1018000020E030E040E753E4C701B6010E94BC0E7F
:10181000181684F020E030E040E05FE3C701B60135
:101820000E94500E0E94330F862F6BE673E00E94D9
:101830008D0D888389819A81AB81BC8189879A8744
:10184000AB87BC8720E030E0A901C301B2010E9450
:10185000BC0E87FF0CC08D819E81AF81B88501963B
:10186000A11DB11D8D839E83AF83B88704C01D82E7
:101870001E821F821886DF91CF91FF90EF90DF903C
:10188000CF90BF90AF909F908F907F906F905F9020
:101890004F900895DC01FB01892BC9F480E090E0B2
:1018A000A0E8BFE380839183A283B383148215826F
:1018B0001682178210861186128613861486158664
:1018C00016861786108A118A128A138A31C04D91A2
:1018D0005D916D917C9113974083518362837383F3
:1018E00014964D915D916D917C911797448355832A
:1018F0006683778318964D915D916D917C911B97CE
:1019000040875187628773871C964D915D916D91D9
:101910007C911F97448755876687778750968D916E
:101920009D910D90BC91A02D808B918BA28BB38B40
:10193000148A158A168A178A108E118E128E138EAB
:10194000148E158E168E178E10A211A212A213A23B
:1019500008954F925F926F927F928F929F92AF9273
:10196000BF92CF92DF92EF92FF92CF93DF93CDB7EA
:10197000DEB72A970FB6F894DEBF0FBECDBF6B015E
:101980007C015A874987DA0154962D913D914D91FA
:101990005C91579729833A834B835C835C964D9087
:1019A0005D906D907C905F972D913D914D915C91F4
:1019B0000E9419104B015C01E985FA85248135816B
:1019C0004681578169817A818B819C810E9419109F
:1019D0009B01AC01C501B4010E94500E4B015C019A
:1019E000A985BA8558962D913D914D915C915B9753
:1019F00018966D917D918D919C911B970E94191065
:101A00009B01AC01C501B4010E94500E4B015C0169
:101A1000E985FA8520A131A142A153A1608971898C
:101A2000828993890E9419106D837E838F839887A2
:101A3000A985BA851C962D913D914D915C911F977A
:101A4000C301B2010E9419109B01AC016D817E811E
:101A50008F8198850E94500E9B01AC01C501B40195
:101A60000E94500E29813A814B815C81A985BA85FB
:101A700058962D933D934D935C935B97FD01C48ADB
:101A8000D58AE68AF78A90964D925D926D927C9205
:101A90009397648F758F868F978F2A960FB6F894D9
:101AA000DEBF0FBECDBFDF91CF91FF90EF90DF90F3
:101AB000CF90BF90AF909F908F907F906F905F90EE
:101AC0004F9008950F931F93F801648B758B868B4D
:101AD000978B208F318F428F538F148E158E168ED9
:101AE000178E10A211A212A213A21F910F91089596
:101AF000FB019FEF980F983070F483871186108652
:101B0000DB01CB0108961D92A817B907E1F71286F1
:101B1000148680E008958FEF0895FB0124853385B6
:101B2000928523130AC0DB01A90FB11D6C9140857A
:101B30005185461B51095187408740855185480F83
:101B4000511D51874087DF01A90FB11D8C939F5F05
:101B5000931710F4928701C01286231710F42F5F99
:101B600024876485662331F070E0CA010E948610E4
:101B7000862F089580E00895FC0111861086128654
:101B800014860895FB019FEF980F983098F485A371
:101B900010A211A212A213A2DB01CB0180961D920A
:101BA0001D921D921D92A817B907C9F714A216A27B
:101BB00080E008958FEF08954F925F926F927F9229
:101BC000BF92CF92DF92EF92FF920F931F93CF932A
:101BD000DF932B013C01EA010EA1BDA01CA10B115A
:101BE00014C0FA0184E0189FE00DF11D112420813A
:101BF00031814281538168A179A18AA19BA10E9470
:101C00004F0E68A379A38AA39BA328A139A14AA157
:101C10005BA1C301B2010E94500E6B017C0168A35D
:101C200079A38AA39BA3FE0184E0189FE00DF11D18
:101C3000112440825182628273821F5F1B1510F44F
:101C40001CA301C01CA20B1510F40F5F0EA36EA104
:101C5000662361F070E080E090E00E94620F9B01DB
:101C6000AC01C701B6010E94C10E03C060E070E084
:101C7000CB01DF91CF911F910F91FF90EF90DF90FB
:101C8000CF90BF907F906F905F904F900895FC0130
:101C900010A211A212A213A214A216A208955058C3
:101CA000BB27AA270E94670E0C94DA0F0E94CC0F64
:101CB00038F00E94D30F20F039F49F3F19F426F436
:101CC0000C94C90F0EF4E095E7FB0C94C30FE92FB9
:101CD0000E94EB0F58F3BA17620773078407950742
:101CE00020F079F4A6F50C940D100EF4E0950B2E6F
:101CF000BA2FA02D0B01B90190010C01CA01A0015E
:101D00001124FF27591B99F0593F50F4503E68F1B8
:101D10001A16F040A22F232F342F4427585FF3CFF9
:101D2000469537952795A795F0405395C9F77EF4CA
:101D30001F16BA0B620B730B840BBAF09150A1F013
:101D4000FF0FBB1F661F771F881FC2F70EC0BA0F99
:101D5000621F731F841F48F4879577956795B79521
:101D6000F7959E3F08F0B0CF9395880F08F099271C
:101D7000EE0F9795879508950E949F0F08F481E0D4
:101D800008950E94D50E0C94DA0F0E94D30F58F0DC
:101D90000E94CC0F40F029F45F3F29F00C94C30F50
:101DA00051110C940E100C94C90F0E94EB0F68F3A4
:101DB0009923B1F3552391F3951B550BBB27AA2704
:101DC00062177307840738F09F5F5F4F220F331F3E
:101DD000441FAA1FA9F335D00E2E3AF0E0E832D006
:101DE00091505040E695001CCAF72BD0FE2F29D009
:101DF000660F771F881FBB1F261737074807AB07DB
:101E0000B0E809F0BB0B802DBF01FF2793585F4F4F
:101E10003AF09E3F510578F00C94C30F0C940E10CD
:101E20005F3FE4F3983ED4F3869577956795B79531
:101E3000F7959F5FC9F7880F911D9695879597F93C
:101E40000895E1E0660F771F881FBB1F62177307B5
:101E50008407BA0720F0621B730B840BBA0BEE1FCA
:101E600088F7E09508950E94F30F88F09F5798F047
:101E7000B92F9927B751B0F0E1F0660F771F881F8F
:101E8000991F1AF0BA95C9F714C0B13091F00E94A9
:101E90000D10B1E008950C940D10672F782F88274E
:101EA000B85F39F0B93FCCF3869577956795B395D0
:101EB000D9F73EF490958095709561957F4F8F4F3F
:101EC0009F4F0895E89409C097FB3EF49095809544
:101ED000709561957F4F8F4F9F4F9923A9F0F92FF0
:101EE00096E9BB279395F695879577956795B7956E
:101EF000F111F8CFFAF4BB0F11F460FF1BC06F5F54
:101F00007F4F8F4F9F4F16C0882311F096E911C065
:101F1000772321F09EE8872F762F05C0662371F086
:101F200096E8862F70E060E02AF09A95660F771F9A
:101F3000881FDAF7880F9695879597F90895990F76
:101F40000008550FAA0BE0E8FEEF16161706E80783
:101F5000F907C0F012161306E407F50798F0621BA4
:101F6000730B840B950B39F40A2661F0232B242B79
:101F7000252B21F408950A2609F4A140A6958FEF98
:101F8000811D811D089597F99F6780E870E060E0EA
:101F900008959FEF80EC089500240A941616170602
:101FA00018060906089500240A941216130614064A
:101FB00005060895092E0394000C11F4882352F0AD
:101FC000BB0F40F4BF2B11F460FF04C06F5F7F4F65
:101FD0008F4F9F4F089557FD9058440F551F59F04C
:101FE0005F3F71F04795880F97FB991F61F09F3F06
:101FF00079F087950895121613061406551FF2CF2F
:102000004695F1DF08C0161617061806991FF1CF7E
:1020100086957105610508940895E894BB276627A5
:102020007727CB0197F908950E949F0F08F48FEF4F
:1020300008950E942C100C94DA0F0E94CC0F38F0F7
:102040000E94D30F20F0952311F00C94C30F0C9431
:10205000C90F11240C940E100E94EB0F70F3959F82
:10206000C1F3950F50E0551F629FF001729FBB278F
:10207000F00DB11D639FAA27F00DB11DAA1F649F2B
:102080006627B00DA11D661F829F2227B00DA11DDE
:10209000621F739FB00DA11D621F839FA00D611D64
:1020A000221F749F3327A00D611D231F849F600D85
:1020B000211D822F762F6A2F11249F5750409AF0AE
:1020C000F1F088234AF0EE0FFF1FBB1F661F771F3A
:1020D000881F91505040A9F79E3F510580F00C9405
:1020E000C30F0C940E105F3FE4F3983ED4F3869533
:1020F00077956795B795F795E7959F5FC1F7FE2BA5
:10210000880F911D9695879597F9089597FB072E4F
:1021100016F4009407D077FD09D00E94BC1007FC8C
:1021200005D03EF4909581959F4F089570956195E7
:102130007F4F0895A1E21A2EAA1BBB1BFD010DC003
:10214000AA1FBB1FEE1FFF1FA217B307E407F50767
:1021500020F0A21BB30BE40BF50B661F771F881F43
:10216000991F1A9469F760957095809590959B01D9
:10217000AC01BD01CF010895AA1BBB1B51E107C0F3
:10218000AA1FBB1FA617B70710F0A61BB70B881F07
:10219000991F5A95A9F780959095BC01CD01089596
:1021A000EE0FFF1F0590F491E02D0994F894FFCFF6
:1021B00000080009000A000B000C010C010D010EC3
:1021C000010FA5D46E3FA4D4EEBFA5D46E3F154138
:1021D000EE3F68D05EBFC7EB863EC7EB863E000091
:1021E00000007128F23E00000000000000001D0108
:1021F0007002CE00E800DA0064010D0A006E616E24
:1022000000696E66006F7666000110001000000025
:00000001FF
