:100000000C946F000C9497000C9497000C9497003C
:100010000C9497000C9497000C9497000C94970004
:100020000C9497000C9497000C9497000C94AD00DE
:100030000C9497000C9497000C9497000C949700E4
:100040000C94D0030C9497000C944B020C947D02FA
:100050000C9497000C9497000C9497000C949700C4
:100060000C94B0090C9497007265743136203D20D1
:10007000004572726F723A2068725F626831373978
:10008000305F43616C632066756E6374696F6E00E8
:100090002C0000000008000201000003040700001B
:1000A000000000000000010204081020408001024E
:1000B00004081020010204081020040404040404AD
:1000C000040402020202020203030303030300000A
:1000D0000000250028002B002A01A302750B112423
:1000E0001FBECFEFD8E0DEBFCDBF11E0A0E0B1E092
:1000F000ECE3F4E202C005900D92A037B107D9F706
:1001000023E0A0E7B1E001C01D92AA3DB207E1F7EC
:1001100010E0CFE6D0E004C02197FE010E94161245
:10012000CC36D107C9F70E94BC000C941C120C9469
:10013000000010928000E1E8F0E010828DEB91E089
:10014000909389008093880080818D608083EFE6A2
:10015000F0E080818260808308951F920F920FB635
:100160000F9211248F9381E0809371018F910F90F2
:100170000FBE0F901F901895CF93DF9300D0CDB78F
:10018000DEB71A821982109271010E941A040E942D
:10019000A80860E87AE186E090E00E94C60826E0C0
:1001A00040E855E260E070E083E791E00E94E601FC
:1001B000109270010E945604892B21F40E9499002C
:1001C0000E947204809171018823E1F38091700193
:1001D0000E9474048C01892B39F5809170018F5F26
:1001E0008093700180917001803288F110927001CB
:1001F000BE016F5F7F4FCE0102960E94DD044AE090
:1002000050E06A8183E791E00E949F0360E970E01B
:1002100083E791E00E940F034AE050E0698183E7A1
:1002200091E00E94A60313C061E770E083E791E0CC
:100230000E94370368E670E083E791E00E940F03B5
:1002400040E150E0B80183E791E00E94BE031092C4
:100250007101B8CF82E791E00C945504FC01918DB7
:10026000228D892F90E0805C9F4F821B91098F73B4
:1002700099270895FC01918D828D981731F0828D18
:10028000E80FF11D858D90E008958FEF9FEF0895A1
:10029000FC01918D828D981761F0828DDF01A80F8E
:1002A000B11D5D968C91928D9F5F9F73928F90E0B0
:1002B00008958FEF9FEF0895FC01848DDF01A80F53
:1002C000B11DA35ABF4F2C91848D90E001968F737E
:1002D0009927848FA689B7892C93A089B1898C919D
:1002E00080648C93938D848D981306C00288F38963
:1002F000E02D80818F7D80830895EF92FF920F9390
:100300001F93CF93DF93EC0181E0888F9B8D8C8DC1
:10031000981305C0E889F989808185FD24C0F62EEF
:100320000B8D10E00F5F1F4F0F731127E02E8C8D88
:10033000E8120CC00FB607FCFACFE889F989808172
:1003400085FFF5CFCE010E945C01F1CF8B8DFE01C0
:10035000E80FF11DE35AFF4FF0820B8FEA89FB890A
:100360008081806207C0EE89FF896083E889F9890E
:1003700080818064808381E090E0DF91CF911F9144
:100380000F91FF90EF900895CF93DF93EC01888D4C
:100390008823C9F0EA89FB89808185FD05C0A88989
:1003A000B9898C9186FD0FC00FB607FCF5CF80810F
:1003B00085FFF2CFA889B9898C9185FFEDCFCE0159
:1003C0000E945C01E7CFDF91CF910895CF92DF9239
:1003D000EF92FF921F93CF93DF93EC016A017B01B1
:1003E000122FE889F98982E080834115514E610519
:1003F0007105B1F060E079E08DE390E0A70196012E
:100400000E94E011DA01C9010197A109B109B6956D
:10041000A795979587959C01211580E13807A8F04D
:10042000E889F989108260E874E88EE190E0A7011C
:1004300096010E94E011DA01C9010197A109B109F1
:10044000B695A795979587959C01EC85FD8530839A
:10045000EE85FF852083188EEC89FD891083EA895B
:10046000FB89808180618083EA89FB898081886043
:100470008083EA89FB89808180688083EA89FB899F
:1004800080818F7D8083DF91CF911F91FF90EF90CE
:10049000DF90CF9008951F920F920FB60F92112404
:1004A0002F938F939F93EF93FF93E0918301F091AC
:1004B00084018081E0918901F0918A0182FD12C05E
:1004C000908180918C018F5F8F7320918D018217B5
:1004D00051F0E0918C01F0E0ED58FE4F958F809344
:1004E0008C0101C08081FF91EF919F918F912F919D
:1004F0000F900FBE0F901F9018951F920F920FB67E
:100500000F9211242F933F934F935F936F937F9399
:100510008F939F93AF93BF93EF93FF9383E791E004
:100520000E945C01FF91EF91BF91AF919F918F91DC
:100530007F916F915F914F913F912F910F900FBEDF
:100540000F901F901895E3E7F1E01382128288EE76
:1005500093E0A0E0B0E084839583A683B7838EE325
:1005600091E09183808385EC90E09587848784EC8B
:1005700090E09787868780EC90E0918B808B81EC70
:1005800090E0938B828B82EC90E0958B848B86EC51
:1005900090E0978B868B118E128E138E148E089599
:1005A000CF92DF92EF92FF920F931F93CF93DF933F
:1005B0006C017A018B01C0E0D0E0CE15DF0581F03F
:1005C000D8016D918D01D601ED91FC910190F081E2
:1005D000E02DC6010995892B11F02196EECF7E0101
:1005E000C701DF91CF911F910F91FF90EF90DF90A6
:1005F000CF9008956115710579F0FB0101900020FD
:10060000E9F73197AF01461B570BDC01ED91FC91E7
:100610000280F381E02D099480E090E00895EF924C
:10062000FF920F931F93CF93DF938C017B01C0E068
:10063000D0E0F701EC0FFD1F6491662361F0D80153
:10064000ED91FC910190F081E02DC8010995892B75
:1006500011F02196EECFCE01DF91CF911F910F9136
:10066000FF90EF9008956AE471E00C94FA020F9302
:100670001F93CF93DF93EC010E940F038C01CE01F7
:100680000E943303800F911FDF91CF911F910F9133
:1006900008958F929F92AF92BF92EF92FF920F9325
:1006A0001F93CF93DF93CDB7DEB7A1970FB6F89422
:1006B000DEBF0FBECDBF7C01FA01CB0119A22230F3
:1006C00008F42AE08E010F5D1F4F822E912CA12C81
:1006D000B12CBF01A50194010E94E011F901CA01EA
:1006E000015011096A3010F4605D01C0695CD801E5
:1006F0006C93232B242B252B61F7B801C7010E9493
:10070000FA02A1960FB6F894DEBF0FBECDBFDF91FF
:10071000CF911F910F91FF90EF90BF90AF909F905E
:100720008F9008952115310541F4DC01ED91FC9184
:100730000190F081E02D642F09940C9449039A01F3
:10074000462F50E060E070E00C9492030F931F93EB
:10075000CF93DF93EC010E949F038C01CE010E9496
:100760003303800F911FDF91CF911F910F91089557
:100770009A01AB0160E070E00C9492030F931F9319
:10078000CF93DF93EC010E94B8038C01CE010E944D
:100790003303800F911FDF91CF911F910F91089527
:1007A0001F920F920FB60F9211242F933F938F93A6
:1007B0009F93AF93BF938091110290911202A091E9
:1007C0001302B09114023091100223E0230F2D3751
:1007D00020F40196A11DB11D05C026E8230F029645
:1007E000A11DB11D2093100280931102909312025B
:1007F000A0931302B09314028091150290911602F7
:10080000A0911702B09118020196A11DB11D80930D
:10081000150290931602A0931702B0931802BF918D
:10082000AF919F918F913F912F910F900FBE0F909D
:100830001F901895789484B5826084BD84B58160DA
:1008400084BD85B5826085BD85B5816085BDEEE6D8
:10085000F0E0808181608083E1E8F0E010828081B7
:1008600082608083808181608083E0E8F0E0808125
:1008700081608083E1EBF0E0808184608083E0EB45
:10088000F0E0808181608083EAE7F0E0808184602D
:100890008083808182608083808181608083808189
:1008A000806880831092C1000895089584E0EFE28B
:1008B000F2E0DF011D928A95E9F70E948F0600970A
:1008C00081F48EE292E00E948D070E94E604009778
:1008D00041F40E94E705009721F489E192E00C942D
:1008E000650C08950C94AE060F931F93CF93DF937E
:1008F00000D000D01F92CDB7DEB71D8219821A82B8
:100900001B821C8290912E02923011F0943029F4B7
:10091000882319F000E010E045C08FE292E00E94C9
:100920000D078C01892BF1F5BE016F5F7F4F8FE2C0
:1009300092E00E94420649815A816B817C812EE2BD
:1009400032E08FE292E00E94AB0760912E026530A8
:1009500021F481E08093330202C010923302AE0191
:100960004B5F5F4F8FE292E00E9406058C01892B5E
:10097000C9F480913302813061F48D81811109C005
:1009800069817A818B819C8149E152E00E94A50CAA
:1009900009C00E9434066091330289E192E00E940E
:1009A000880C8C01C8010F900F900F900F900F9042
:1009B000DF91CF911F910F91089520911902FC01B1
:1009C000208380913302FB018083089510923902C5
:1009D00010923A0210923B0210923C0281E0809306
:1009E000380280E197E290933702809336021092AA
:1009F00035021092340260E083E00E9446070097BF
:100A000021F460E084E00C9446070895FF920F9370
:100A10001F93CF93DF93CDB7DEB762970FB6F894ED
:100A2000DEBF0FBECDBF162F22E1E0E0F1E0DE0118
:100A3000119601900D922A95E1F7FA011082633028
:100A400061F06530A1F0613009F098C08091380202
:100A5000813009F493C0608391C080913802833063
:100A600009F48CC081E0FA0180830DE088C02091F8
:100A70003802253099F0109235021092340280E14C
:100A800097E29093370280933602109239021092C7
:100A90003A0210923B0210923C025AC0FC012281A1
:100AA0003381283E334008F056C0FC01208131815B
:100AB00060913602709137028091390290913A022A
:100AC000A0913B02B0913C022617370768F168E815
:100AD00073E170933702609336022837F9E63F07D7
:100AE00088F4203F3545D8F020913402309135020A
:100AF0002F5F3F4F203A310528F430933502209381
:100B0000340229C0109235021092340218161906C8
:100B10001A061B0604F50197A109B10911C010922C
:100B200035021092340217C010923502109234022E
:100B300088309105A105B10574F40196A11DB11D80
:100B40008093390290933A02A0933B02B0933C0207
:100B500081E0FA0180838091390290913A02A0915C
:100B60003B02B0913C02880F991FE1E0F0E0EC0FEE
:100B7000FD1FE80FF91FF080018102C000E0F12C99
:100B8000FA018081813099F40E94F806009789F477
:100B90006F2D83E00E944607009759F4602F84E090
:100BA0000E944607009729F40E94AE0602C080E02A
:100BB00090E01093380262960FB6F894DEBF0FBE35
:100BC000CDBFDF91CF911F910F91FF900895CF93EB
:100BD000DF93CDB7DEB7A8970FB6F894DEBF0FBE90
:100BE000CDBF84E1E2E1F1E0DE01559601900D9286
:100BF0008A95E1F784E1E6E2F1E0DE0111960190E9
:100C00000D928A95E1F76BE872E084E00E94080F8C
:100C100081111FC064E672E088E00E94080F811114
:100C200018C06DE372E088E00E94080F811111C0C6
:100C30001092FA0266ED72E0CE0145960E94900D88
:100C400062EB72E0CE0101960E94900D80E090E090
:100C500002C080E091E3A8960FB6F894DEBF0FBE05
:100C6000CDBFDF91CF9108951092FA028BE892E008
:100C70000E948D0F84E692E00E948D0F8DE392E03A
:100C80000C948D0FCF92DF92EF92FF920F931F93F0
:100C9000CF93DF93EB01FC016081718180E090E0F4
:100CA0000E94A8104BE852E00E94220F44E652E056
:100CB0000E94220F4DE352E00E94220F6B017C0143
:100CC0008091FA02811114C081E08093FA0206ED4E
:100CD00012E0A7019601C701B6010E94A80E02EB1F
:100CE00012E020E030E0A901CA01B9010E94A80E7B
:100CF00046ED52E0C701B6010E94EF0D42EB52E013
:100D00000E94EF0D688379838A839B83DF91CF9163
:100D10001F910F91FF90EF90DF90CF900895109268
:100D2000000382E08093FE021092FF0288E080932D
:100D3000FD021092FC021092FB020E94490C8E5F91
:100D4000833048F4E82FF0E0EE0FFF1FE75AFE4F24
:100D50008081918108958FEF9FE108950F931F93F4
:100D6000CF93DF9300D01F92CDB7DEB70091FE0284
:100D700003708091FF0280FB02F900688091FD0200
:100D80008F708F7E9091FC0290FB85F91091FB0291
:100D90001295110F110F107C8F73182B0E94040CE9
:100DA000811110C009831A8381E08B8343E0BE0167
:100DB0006F5F7F4F81E40E94D10B811103C091E0EE
:100DC000909300038E5F833048F4E82FF0E0EE0F3D
:100DD000FF1FE75AFE4F8081918102C08FEF9FE194
:100DE0000F900F900F90DF91CF911F910F91089569
:100DF0000E94040C811102C0109200038E5F8330A8
:100E000048F4E82FF0E0EE0FFF1FE75AFE4F808115
:100E1000918108958FEF9FE108950F931F93CF93D2
:100E2000DF9300D000D0CDB7DEB72091000322239E
:100E3000F9F08C0144E0BE016F5F7F4F84E50E94B2
:100E4000160C811109C029813A81F801338322836C
:100E50002B813C81318320838E5F833060F4E82FC7
:100E6000F0E0EE0FFF1FE75AFE4F8081918105C031
:100E700081E091E102C08FEF9FE10F900F900F9002
:100E80000F90DF91CF911F910F91089590910003E2
:100E9000913071F18230C9F028F4882341F081301B
:100EA00059F029C08330B1F08430C9F024C06230D9
:100EB00028F56093FF0206C08FEF860F823008F599
:100EC0006093FE0280E090E008956430E8F460935F
:100ED000FB02F8CF6230D8F46093FC02F3CF8FEFBF
:100EE000860F8730B8F06031A8F46093FD02EACF36
:100EF00080E091E1089585E092E1089580E092E13B
:100F0000089581E092E1089582E092E1089583E0FE
:100F100092E1089584E092E1089510920D031092F9
:100F20000C0310920B0310920A0310920903109203
:100F30000503109206031092070310920803109203
:100F4000010310920203109203031092040321E0A4
:100F5000FC0120830895CF92DF92EF92FF92CF930E
:100F6000DF93FC016A017B01E9018881853038F457
:100F7000833030F5813039F08230D1F0E2C08530F5
:100F800009F459C0DEC082819381843F914010F4FE
:100F900083E025C080910C0390910D0301969093FE
:100FA0000D0380930C03809708F4CBC082E017C038
:100FB00082819381843F914008F0C3C083E039C0AF
:100FC00082819381883E9340B0F410920D03109279
:100FD0000C038081918188389341D0F085E088832B
:100FE00010920D0310920C0310920B0310920A033F
:100FF00010920903A6C080910C0390910D030196F5
:1010000090930D0380930C03809710F081E0E7CF5D
:1010100080910A0390910B03019690930B038093A8
:101020000A03803C23E0920788F7809709F089C083
:1010300084E0888386C082819381883E934028F42F
:1010400010920D0310920C030BC080910C03909131
:101050000D03019690930D0380930C038097B0F6D7
:101060008091090381110CC081E080930903C09233
:101070000503D0920603E0920703F092080313C021
:101080001816D4F42091050330910603409107030C
:1010900050910803C701B6010E945A1187FF1DC075
:1010A0008FEF80930903C0920103D0920203E09274
:1010B0000303F092040319C020910103309102034D
:1010C0004091030350910403C701B6010E9402102E
:1010D00018164CF781E080930903C0920503D09263
:1010E0000603E0920703F092080320910103309178
:1010F0000203409103035091040360910503709132
:10110000060380910703909108030E94950F20E049
:1011100030E040EA51E40E945A1118162CF4109263
:101120000B0310920A030DC080910A0390910B03E8
:10113000019690930B0380930A03803C934008F040
:1011400065CFDF91CF91FF90EF90DF90CF90089522
:101150001092D90381E0809379031092780361E0C3
:1011600082E10E94A20B61E083E10E94A20BE9EB05
:10117000F0E080818E7F808380818D7F808388E412
:101180008093B80085E48093BC0008959B01AC0176
:1011900060E074E284EF90E00E94E011DA01C9019E
:1011A0004097A109B109B695A79597958795809322
:1011B000B8000895413208F043C09091D9039111CD
:1011C000FCCF91E09093D903209379032FEF2093E4
:1011D0000E0310925303240F2093520390937A032B
:1011E00090917A03880F892B80937A0380917803FA
:1011F000813061F41092780380917A038093BB0070
:101200008091BC0083FDF8CF85EC01C085EE809312
:10121000BC008091D9038130E1F38091530384179E
:1012200010F440915303A4E5B3E0962FFB018E2FF9
:10123000891B841718F48D918193F9CF842F089519
:1012400080E008950F93413208F04AC09091D9038D
:101250009111FCCF32E03093D903009379033FEF33
:1012600030930E031092530340935203562FA4E57C
:10127000B3E0FB013E2F351B341718F431913D9339
:10128000F9CF10927A0330917A03880F832B8093E1
:101290007A0380917803813061F410927803809111
:1012A0007A038093BB008091BC0083FDF8CF85EC6E
:1012B00001C085EE8093BC00222321F08091D903E8
:1012C0008230D1F380910E038F3F79F080910E032D
:1012D000803241F080910E03803331F094E005C0FC
:1012E00091E003C092E001C093E0892F0F9108952F
:1012F00040913003262F30E0240F311D213231057B
:10130000DCF42091D9032430C9F4FC0180E090E0A2
:10131000861758F4309130032191DC01AE5CBC4F4C
:10132000A30FB11D2C930196F3CF80913003680F6A
:101330006093300380E0089581E0089582E008958D
:1013400085ED8093BC008091BC0084FDFCCF1092A1
:10135000D903089585EC8093BC001092D9030895B9
:101360001F920F920FB60F9211242F933F934F931A
:101370005F936F937F938F939F93AF93BF93EF93FD
:10138000FF938091B900887F803609F49EC078F57C
:10139000883209F45DC090F4803109F456C038F405
:1013A000882309F4F5C0883009F44FC0F5C08831AE
:1013B00009F44EC0803209F45FC0EEC0803409F4F5
:1013C0006AC058F4803309F457C0883309F0E4C088
:1013D00080930E030E94AA09DFC0803509F44FC034
:1013E000883509F45DC0883409F0D6C0D3C0883987
:1013F00009F4C4C0A8F4883709F467C038F4883603
:1014000009F463C0803709F460C0C6C0883809F4A5
:10141000B5C0803909F45FC0803809F0BDC05BC039
:10142000803B09F483C038F4803A09F466C0883AF6
:1014300009F47CC0B1C0803C09F4A4C0883C09F424
:10144000A1C0883B09F487C0A7C080917A0310C06F
:101450009091530380915203981770F5E0915303D4
:1014600081E08E0F80935303F0E0EC5AFC4F8081B3
:101470008093BB0085EC83C080930E038BC0E0910A
:10148000530381E08E0F809353038091BB00F0E003
:10149000EC5AFC4F808390915303809152036BC0B0
:1014A000E091530381E08E0F809353038091BB0042
:1014B000F0E0EC5AFC4F80838091790381116AC07F
:1014C00081E08093780384EA5EC083E08093D9034F
:1014D00010920F03CFCF80910F03803208F04EC0DF
:1014E000E0910F0381E08E0F80930F038091BB008A
:1014F000F0E0E05FFC4F8083BDCF0E94AA0980919D
:101500000F03803230F4E0910F03F0E0E05FFC4F16
:10151000108260910F0370E0E0917403F091750305
:1015200080E193E0099510920F0336C084E0809328
:10153000D9031092310310923003E0917603F091B9
:101540007703099580913003811105C081E0809374
:10155000300310923203E091310381E08E0F8093CB
:101560003103F0E0EE5CFC4F80818093BB009091F2
:10157000310380913003981708F47CCF85E880937D
:10158000BC000AC085EC8093BC001092D90304C053
:1015900010920E030E94A009FF91EF91BF91AF91AD
:1015A0009F918F917F916F915F914F913F912F917B
:1015B0000F900FBE0F901F9018958091AA0390E096
:1015C0002091AB03821B910908959091AB03809108
:1015D000AA03981750F4E92FF0E0E455FC4F20815E
:1015E00030E09F5F9093AB0302C02FEF3FEFC90144
:1015F0000895E091AB038091AA03E81730F4F0E07E
:10160000E455FC4F808190E008958FEF9FEF08959F
:101610000895CF92DF92EF92FF920F931F93CF9393
:10162000DF937C01CB018A0120918703222389F07B
:10163000EB016B01C40ED51ECC15DD0569F0699177
:10164000D701ED91FC910190F081E02DC701099542
:10165000F3CF642F0E947809C801DF91CF911F91C9
:101660000F91FF90EF90DF90CF900895CF93DF938D
:101670001F92CDB7DEB76983209187032223D1F073
:1016800020918803203240F021E030E0FC013383D8
:10169000228380E090E015C080918903E82FF0E07C
:1016A000E657FC4F998190838F5F809389038093E5
:1016B000880305C061E0CE0101960E94780981E0AF
:1016C00090E00F90DF91CF910895FC011382128278
:1016D00088EE93E0A0E0B0E084839583A683B7838F
:1016E00083E691E09183808308958BE793E00C94E7
:1016F000650B833081F028F4813099F08230A1F0BD
:1017000008958730A9F08830B9F08430D1F4809101
:1017100080008F7D03C0809180008F778093800050
:10172000089584B58F7702C084B58F7D84BD0895F8
:101730008091B0008F7703C08091B0008F7D80933F
:10174000B00008951F93CF93DF93282F30E0F90165
:10175000EE56FF4F8491F901EA55FF4FD491F901FC
:10176000E654FF4FC491CC23C1F0162F81110E9483
:10177000790BEC2FF0E0EE0FFF1FE253FF4FA59126
:10178000B4919FB7F894111104C08C91D095D823CF
:1017900002C0EC91DE2BDC939FBFDF91CF911F91B4
:1017A0000895CF92DF92FF920F931F93CF93DF9311
:1017B0001F92CDB7DEB789836B01F42E00E010E0F5
:1017C00021E030E041E050E0BE016F5F7F4F8BE5EC
:1017D00090E00E9422094F2D50E001E010E020E04F
:1017E00030E0B6018BE590E00E942209882311F0D9
:1017F0008EEF01C080E00F90DF91CF911F910F918C
:10180000FF90DF90CF900895CF93DF931F92CDB7D5
:10181000DEB780E8898341E0BE016F5F7F4F80E4DF
:101820000E94D10B0F90DF91CF910895CF92DF925C
:10183000FF920F931F93CF93DF931F92CDB7DEB725
:1018400089836B01F42E01E010E020E030E041E0FC
:1018500050E0BE016F5F7F4F8BE590E00E94220950
:1018600081110BC04F2D50E021E030E0B6018BE537
:1018700090E00E94DA08F81611F08EEF01C080E0C7
:101880000F90DF91CF911F910F91FF90DF90CF903C
:101890000895CF93DF931F92CDB7DEB741E0BE012D
:1018A0006F5F7F4F80E10E94160C811106C081E0BE
:1018B00099819D3009F480E08195811102C00E94D8
:1018C000040C0F90DF91CF910895FC0110821182DA
:1018D0001282138214821582168217821086118654
:1018E000128613861486158616861786108A118A24
:1018F000128A138A148A6CEC73E084E00E94BE0E94
:10190000882319F080E090E3089580E090E0089546
:10191000FC016230A0F411821282138214821582BB
:10192000168217821086118612861386148661111C
:1019300009C010828CEC93E00E94020F03C081E08A
:1019400090E3089580E090E008954F925F926F9247
:101950007F928F929F92AF92BF92CF92DF92EF923F
:10196000FF92CF93DF932B013C01EA01C980DA801B
:10197000EB80FC802FEFC21AD20AE20AF20AC98277
:10198000DA82EB82FC8232E0C316D104E104F10476
:101990004CF02D853E854F8558890E94950F4B014F
:1019A0005C0103C0812C912C54014D865E866F86AC
:1019B000788A43E0C416D104E104F1045CF029897B
:1019C0003A894B895C89C501B4010E94950F2B01AE
:1019D0003C0103C0412C512C3201898A9A8AAB8A7E
:1019E000BC8A89859A85AB85BC85A7019601281B91
:1019F000390B4A0B5B0BCA01B90112161306140608
:101A00001506DCF40E94AA1020E030E040E05DE31F
:101A10000E945F119B01AC0160E070E080E792E4FE
:101A20000E9407106B017C0120E030E040E252E4AC
:101A30000E94021087FF08C003C0C12CD12C760180
:101A400019861A861B861C8620E030E0A901C50194
:101A5000B4010E94021087FF3BC020E030E0A901E2
:101A6000C301B2010E945A1187FD32C08D819E814F
:101A7000AF81B8850397A105B10554F189859A8591
:101A8000AB85BC85892B8A2B8B2BD1F020E030E0F5
:101A900040E753E4C701B6010E940210181684F013
:101AA00020E030E040E05FE3C701B6010E94960FFE
:101AB0000E947910862F6CEC73E00E94D30E88830D
:101AC00089819A81AB81BC8189879A87AB87BC87E2
:101AD00020E030E0A901C301B2010E94021087FF9B
:101AE0000CC08D819E81AF81B8850196A11DB11D6D
:101AF0008D839E83AF83B88704C01D821E821F82A0
:101B00001886DF91CF91FF90EF90DF90CF90BF903C
:101B1000AF909F908F907F906F905F904F900895BF
:101B2000DC01FB01892BC9F480E090E0A0E8BFE371
:101B300080839183A283B3831482158216821782D5
:101B400010861186128613861486158616861786C9
:101B5000108A118A128A138A31C04D915D916D915C
:101B60007C911397408351836283738314964D91C4
:101B70005D916D917C91179744835583668377833C
:101B800018964D915D916D917C911B97408751877F
:101B9000628773871C964D915D916D917C911F9723
:101BA000448755876687778750968D919D910D90D4
:101BB000BC91A02D808B918BA28BB38B148A158A3C
:101BC000168A178A108E118E128E138E148E158E11
:101BD000168E178E10A211A212A213A208954F9270
:101BE0005F926F927F928F929F92AF92BF92CF92AD
:101BF000DF92EF92FF92CF93DF93CDB7DEB72A97B4
:101C00000FB6F894DEBF0FBECDBF6B017C015A87C3
:101C10004987DA0154962D913D914D915C915797EA
:101C200029833A834B835C835C964D905D906D90E5
:101C30007C905F972D913D914D915C910E945F1139
:101C40004B015C01E985FA85248135814681578104
:101C500069817A818B819C810E945F119B01AC011B
:101C6000C501B4010E94960F4B015C01A985BA859C
:101C700058962D913D914D915C915B9718966D9181
:101C80007D918D919C911B970E945F119B01AC01EE
:101C9000C501B4010E94960F4B015C01E985FA85EC
:101CA00020A131A142A153A16089718982899389C0
:101CB0000E945F116D837E838F839887A985BA8583
:101CC0001C962D913D914D915C911F97C301B201DE
:101CD0000E945F119B01AC016D817E818F8198858F
:101CE0000E94960F9B01AC01C501B4010E94960FA2
:101CF00029813A814B815C81A985BA8558962D93BB
:101D00003D934D935C935B97FD01C48AD58AE68A27
:101D1000F78A90964D925D926D927C929397648F24
:101D2000758F868F978F2A960FB6F894DEBF0FBEF9
:101D3000CDBFDF91CF91FF90EF90DF90CF90BF901C
:101D4000AF909F908F907F906F905F904F9008958D
:101D50000F931F93F801648B758B868B978B208F65
:101D6000318F428F538F148E158E168E178E10A2C0
:101D700011A212A213A21F910F910895FB019FEFD0
:101D8000980F983070F4838711861086DB01CB01A1
:101D900008961D92A817B907E1F71286148680E00D
:101DA00008958FEF0895FB012485338592852313D1
:101DB0000AC0DB01A90FB11D6C9140855185461BFE
:101DC00051095187408740855185480F511D5187E2
:101DD0004087DF01A90FB11D8C939F5F931710F40B
:101DE000928701C01286231710F42F5F2487648521
:101DF000662331F070E0CA010E94CC11862F08954D
:101E000080E00895FC0111861086128614860895DC
:101E1000FB019FEF980F983098F485A310A211A2B0
:101E200012A213A2DB01CB0180961D921D921D927E
:101E30001D92A817B907C9F714A216A280E0089549
:101E40008FEF08954F925F926F927F92BF92CF92E1
:101E5000DF92EF92FF920F931F93CF93DF932B01AB
:101E60003C01EA010EA1BDA01CA10B1114C0FA0196
:101E700084E0189FE00DF11D112420813181428101
:101E8000538168A179A18AA19BA10E94950F68A3A3
:101E900079A38AA39BA328A139A14AA15BA1C3016D
:101EA000B2010E94960F6B017C0168A379A38AA3FB
:101EB0009BA3FE0184E0189FE00DF11D11244082D8
:101EC0005182628273821F5F1B1510F41CA301C034
:101ED0001CA20B1510F40F5F0EA36EA1662361F018
:101EE00070E080E090E00E94A8109B01AC01C70167
:101EF000B6010E94071003C060E070E0CB01DF91E3
:101F0000CF911F910F91FF90EF90DF90CF90BF90F6
:101F10007F906F905F904F900895FC0110A211A2E6
:101F200012A213A214A216A208955058BB27AA27E2
:101F30000E94AD0F0C9420110E94121138F00E94E3
:101F4000191120F039F49F3F19F426F40C940F1165
:101F50000EF4E095E7FB0C940911E92F0E94311172
:101F600058F3BA17620773078407950720F079F4CE
:101F7000A6F50C9453110EF4E0950B2EBA2FA02D5C
:101F80000B01B90190010C01CA01A0011124FF2726
:101F9000591B99F0593F50F4503E68F11A16F04021
:101FA000A22F232F342F4427585FF3CF4695379520
:101FB0002795A795F0405395C9F77EF41F16BA0BE5
:101FC000620B730B840BBAF09150A1F0FF0FBB1F93
:101FD000661F771F881FC2F70EC0BA0F621F731FDC
:101FE000841F48F4879577956795B795F7959E3F39
:101FF00008F0B0CF9395880F08F09927EE0F9795CA
:10200000879508950E94E51008F481E008950E94E4
:102010001B100C9420110E94191158F00E941211EB
:1020200040F029F45F3F29F00C94091151110C94F0
:1020300054110C940F110E94311168F39923B1F3DC
:10204000552391F3951B550BBB27AA2762177307DE
:10205000840738F09F5F5F4F220F331F441FAA1F72
:10206000A9F335D00E2E3AF0E0E832D0915050402E
:10207000E695001CCAF72BD0FE2F29D0660F771FDC
:10208000881FBB1F261737074807AB07B0E809F0C2
:10209000BB0B802DBF01FF2793585F4F3AF09E3F47
:1020A000510578F00C9409110C9454115F3FE4F33E
:1020B000983ED4F3869577956795B795F7959F5F8A
:1020C000C9F7880F911D9695879597F90895E1E0D6
:1020D000660F771F881FBB1F621773078407BA0735
:1020E00020F0621B730B840BBA0BEE1F88F7E09590
:1020F00008950E94391188F09F5798F0B92F9927B9
:10210000B751B0F0E1F0660F771F881F991F1AF0E2
:10211000BA95C9F714C0B13091F00E945311B1E0E3
:1021200008950C945311672F782F8827B85F39F0E2
:10213000B93FCCF3869577956795B395D9F73EF47B
:1021400090958095709561957F4F8F4F9F4F089523
:10215000E89409C097FB3EF4909580957095619541
:102160007F4F8F4F9F4F9923A9F0F92F96E9BB27F7
:102170009395F695879577956795B795F111F8CF73
:10218000FAF4BB0F11F460FF1BC06F5F7F4F8F4FDE
:102190009F4F16C0882311F096E911C0772321F0D4
:1021A0009EE8872F762F05C0662371F096E8862F6C
:1021B00070E060E02AF09A95660F771F881FDAF7C3
:1021C000880F9695879597F90895990F0008550FF0
:1021D000AA0BE0E8FEEF16161706E807F907C0F0AD
:1021E00012161306E407F50798F0621B730B840BB5
:1021F000950B39F40A2661F0232B242B252B21F48F
:1022000008950A2609F4A140A6958FEF811D811D2E
:10221000089597F99F6780E870E060E008959FEF68
:1022200080EC089500240A9416161706180609066D
:10223000089500240A94121613061406050608953C
:10224000092E0394000C11F4882352F0BB0F40F4C4
:10225000BF2B11F460FF04C06F5F7F4F8F4F9F4F04
:10226000089557FD9058440F551F59F05F3F71F086
:102270004795880F97FB991F61F09F3F79F08795ED
:102280000895121613061406551FF2CF4695F1DF76
:1022900008C0161617061806991FF1CF8695710506
:1022A000610508940895E894BB2766277727CB013A
:1022B00097F908950E94E51008F48FEF08950E94A1
:1022C00072110C9420110E94121138F00E94191101
:1022D00020F0952311F00C9409110C940F11112486
:1022E0000C9454110E94311170F3959FC1F3950F16
:1022F00050E0551F629FF001729FBB27F00DB11D8A
:10230000639FAA27F00DB11DAA1F649F6627B00D19
:10231000A11D661F829F2227B00DA11D621F739F02
:10232000B00DA11D621F839FA00D611D221F749F10
:102330003327A00D611D231F849F600D211D822F57
:10234000762F6A2F11249F5750409AF0F1F088237E
:102350004AF0EE0FFF1FBB1F661F771F881F9150AB
:102360005040A9F79E3F510580F00C9409110C9440
:1023700054115F3FE4F3983ED4F3869577956795C3
:10238000B795F795E7959F5FC1F7FE2B880F911DD5
:102390009695879597F9089597FB072E16F4009464
:1023A00007D077FD09D00E94021207FC05D03EF449
:1023B000909581959F4F0895709561957F4F0895F1
:1023C000A1E21A2EAA1BBB1BFD010DC0AA1FBB1F39
:1023D000EE1FFF1FA217B307E407F50720F0A21BAB
:1023E000B30BE40BF50B661F771F881F991F1A9418
:1023F00069F760957095809590959B01AC01BD0142
:10240000CF010895AA1BBB1B51E107C0AA1FBB1F28
:10241000A617B70710F0A61BB70B881F991F5A9570
:10242000A9F780959095BC01CD010895EE0FFF1F8F
:0C2430000590F491E02D0994F894FFCF82
:10243C0000080009000A000B000C010C010D010E34
:10244C00010FA5D46E3FA4D4EEBFA5D46E3F1541A9
:10245C00EE3F68D05EBFC7EB863EC7EB863E000002
:10246C0000007128F23E00000000000000007D0119
:10247C00D0022E0148013A01C4010D0A006E616EB2
:10248C0000696E66006F7666000110001000000097
:10249C00000000360B090BDD0AE50AF90A080B00EF
:00000001FF
